:020000040000FA
:1000000098F1FF1F650100007101000073010000FD
:1000100000000000000000000000000000000000E0
:10002000000000000000000000000000750100005A
:1000300000000000000000007701000079010000CE
:100040007B0100007B0100007B0100007B010000C0
:100050007B0100007B0100007B0100007B010000B0
:100060007B0100007B0100007B0100007B010000A0
:100070007B0100007B0100007B0100006D0B000094
:100080007B010000A91200007B0100007B01000041
:100090007B0100007B010000990F00007B01000044
:1000A0007B0100007B0100007B0100007B01000060
:1000B0007B0100007B0100007B0100007B01000050
:1000C00000F002F800F03EF80CA030C80838241800
:1000D0002D18A246671EAB4654465D46AC4201D180
:1000E00000F030F87E460F3E0FCCB6460126334274
:1000F00000D0FB1AA246AB4633431847D81700007E
:10010000F8170000103A02D378C878C1FAD852071D
:1001100001D330C830C101D504680C6070470000BD
:100120000023002400250026103A01D378C1FBD813
:10013000520700D330C100D50B6070471FB51FBDFB
:1001400010B510BD00F0B4FC1146FFF7F7FF01F049
:1001500093F900F0CCFC03B4FFF7F2FF03BC00F00E
:10016000FDFC000072B60948804762B608480047A7
:10017000FEE7FEE7FEE7FEE7FEE706480047000071
:1001800005480649044A064B7047000071110000FB
:10019000C10000007B01000098F0FF1F98F1FF1FD5
:1001A00098F0FF1F704770477047000030B5034656
:1001B000CA02400D1043164D164C0A1502D02043BA
:1001C000002A06DBAA1A002A12DDD040FF2A0BDC27
:1001D00030BD5205520D01D140004008AA1A07D483
:1001E000D0404042FF2A01DD002030BD0028FCDD68
:1001F0004A00002B01D0012000E00020101801224D
:100200005205D042F0D8C817C043604030BD00004E
:100210001E040000000000800346CA02400D10B515
:1002200010430A1504D00124E4072043002A05DB0B
:100230000A4CA21A04D4D040FF2A00DD002010BDD1
:100240004A00002B01D0012000E0002010180122FC
:100250005205D042F2D8C817C04310BD1E0400009A
:100260001F22030C02D10F22000402D0030E03D080
:1002700004E00020014670470002083A030F01D154
:100280000001121F830F01D18000921E002801DBA4
:100290004000521E120551184205C0124118104666
:1002A0007047C10FC90700D0404201229207114395
:1002B000D6E701218907D3E710B501469E24000245
:1002C000CA15A307002A02D01843002A04DBA21A89
:1002D000002A0CDDD04010BD1206120E01D14000E4
:1002E0004008A21A03D4D04040420028F3DDFF2288
:1002F00048001206904201D9002010BDC817C04323
:10030000584010BD1F22030C02D10F2200041CD044
:10031000030E01D10002083A030F01D10001121FA0
:10032000830F01D18000921E002801DB4000521E85
:10033000D2055118021251181922904004D3491CB9
:10034000002801D14908490008467047C10FC90774
:1003500000D04042012292071143D3E701218907CF
:10036000D0E7000010B5FF231B0644009C421DD8B7
:100370004C009C421AD80346124A0B4307D4401A39
:1003800002D3EFF3008010BDEFF3008010BD081A18
:1003900006D2EFF3008001219043C907084302E031
:1003A000EFF30080904380F3008810BD0D231B0401
:1003B0001A4204D01146002000F006F810BD00F0EB
:1003C0006FFB10BD00000090C80212D54803400F1B
:1003D000002804D0C803C043012188407047EFF3D0
:1003E00000800001000903210907084380F3008809
:1003F00070470020704700000048704738F0FF1F2A
:10040000FFFFFFFFFFFFFFFFFFFFFFFFFEFFFFFFFD
:10041000F0B5F94D0C091E092C402E402F468BB02B
:10042000A7437DD0B543FCD0002E7AD0002CFCD061
:100430000D465D40ED0F2543AC1BFF25AD0464194F
:100440000894C502440DC9022143500DDC02044347
:100450000120C00701430443D2020191200C110C7A
:1004600000958C46010423468B430A91614609049A
:10047000E24D8A430991010A7D444919803909787E
:1004800005464D4301266D18F605751B6943C90CD9
:10049000640B891C4C436418B5012C1B250C2E04DD
:1004A000B4434C434D43210C691889090591009DC3
:1004B000E90701D00121C90704912C460199670879
:1004C000CD072F434C08059DE10B4D432D0C2946CC
:1004D0006646754302950D4645432E46029D7D1B9B
:1004E000B44100950D465D4301942C0C2F040D463C
:1004F0005543AE462D0C3D43029503947546049C2E
:100500002D04641B049406D2029C039D641C0026E7
:1005100075410395029401AC70CC009F7D1B01E0F6
:100520003EE162E1B4410904009507910194059907
:10053000A4086143090C0C464443650BE7040C46D0
:1005400066467443A646640B3C4303950294744686
:10055000049DE4042C1B049406D2029C039D641C9D
:10056000002675410395029401AC70CC009F7D1B61
:10057000B44101940C465C430095650FE7000C46BE
:100580005443A646640F3C43039502947446049D6D
:10059000E4002C1B049406D2029C039D641C0026DC
:1005A00075410395029401AC70CC009F7D1BB44152
:1005B000AE09AF06049DC900AD092F43049DA406F2
:1005C000AD060495079D344369180791059DE10B1D
:1005D0004D432D0C29466646754302950D4645430D
:1005E0002E46029D7D1BB44100950D465D4301944E
:1005F0002C0C2F040D465543AE462D0C3D43029561
:1006000003947546049C2D04641B049406D2029C3A
:10061000039D641C002675410395029401AC70CCC7
:10062000009F7D1BB44101948C050694079C890AA8
:10063000611800950791019C0599A4086143090C74
:100640000D464543680BEF040D46644665436C0B4D
:100650003C43049FED047D1BAC4602D20025641C84
:100660006841009E019D371B85410846584301950E
:100670000C46460FC5005443600F28436546E4000E
:100680002C1B02D20025401C6E41019D3F1AB54132
:100690002846BD09800628438446A009BF064E02AD
:1006A0000699A40676180743079D002068410A9919
:1006B000079019430020099B00906046FF191343DF
:1006C0004041E20F64003A43A4460446D71A8C41E5
:1006D000A04203D90120009020463A46C70F941843
:1006E00040416246D20F2243644664000494009C59
:1006F000BE466400D71AA446044602978C4177464A
:10070000002F01D1A04204D96046401C8446029AC1
:100710002046C40FA64694184041049A0546D20FBD
:10072000224364466400D31A8D417146002901D1E9
:10073000A84202D928461A46641C10430122002808
:1007400000D0164361020020079B891904465C41D2
:100750000223002C02DB491813466441089DCE0A8F
:100760002D145D194B056705E10A2C050D19089933
:100770003E43C9076940002B08D0934006D30022AE
:10078000761C5141002B01D1760876001C4A002DC1
:1007900043DB154241D0AA433FD030460BB0F0BDF9
:1007A00006180D464D41174C7642AC411AD39518A8
:1007B0001C465C41134A6D42A24113D301225205EB
:1007C0004C00D4420AD15C00D4420BD04B4002D53D
:1007D00092021143E2E749004908DFE75940C90F97
:1007E000C90718E000200849D8E7054801420DD1A3
:1007F0000342F7D0F2E700000000FF07D813000023
:100800000000F07F0000E0FF0000F87F1148594031
:100810000143C01241400020C0E70123089A9B0613
:100820009A4205DC032252078918C90FC907B5E7A8
:10083000052252078918074A1143D2125140ADE7E9
:1008400070B515461C4602460B4628462146FFF762
:10085000DFFD70BDFFFFFF7FF0B58B4C0F09254614
:1008600089B0BD437BD01D092646AE43FAD00E4663
:100870005E402740F60F3E43254071D024012142BF
:10088000FBD0FF24AD19A4042D1B039501252D05D4
:10089000DB02DB0AC9022B43C90A29431E010901F5
:1008A000040F130F050121431701880B82039143A5
:1008B0002D098C46A90B1E438A039543B30B9A035B
:1008C00096433F09BA0B9403A74302962E467E43F4
:1008D0000497B6464E19D7190C460196544305970E
:1008E0007E43371B7646BF1B3601B646BE0B361914
:1008F00000967646BC043719009C01D3641C009412
:100900006400002F01D001263443029E049F7543EA
:1009100066467E430496760034196E0034190094BE
:10092000029C019E1C196643751BAE4606946546E3
:100930004519059C05956C43594375460891691AFC
:100940000191049E01465143A41B0491611A009C2D
:100950000791E10605D061090122114302E072E02E
:100960006EE06109089D00272C0A2D066918049D78
:100970007C412A0A2D066918019D6241AC0DAD0229
:100980006D185441079A910D920255196141029ACE
:10099000644658435443069B059A5A43121A131B44
:1009A0009A0E9B015B187A41010B0005C318514157
:1009B000220A200644195A419A4200D2491C0120B9
:1009C0004002814203D315230226F64302E014239A
:1009D0000326F6432020C51AA9401746AF40DA4047
:1009E0000A4320460399D840091473181905511871
:1009F000039A3843D2075140AC4009D001229440B9
:100A000006D30022401C5141002C01D14008400077
:100A10001E4A934212D3012203989206904207DBAA
:100A20000520400709181A480143C012414004E05C
:100A3000032040070818C10FC907002009B0F0BD06
:100A40000020F107FAE705180C464C4111486D42A9
:100A5000A04115D394181A465A410E486442904159
:100A60000ED301204A004005824209D35A00824237
:100A700006D35940C90F084AC90700201143DDE7D2
:100A800000200649DAE700000000FF07FE0700002B
:100A9000FFFFFF7F0000E0FF0000F07F0000F87F15
:100AA00010B5024800F02BF810BD00000000C07F18
:100AB0007546FFF7A1FCAE46050069465346C008DF
:100AC000C000854618B020B5FFF75AFB60BC002770
:100AD0004908B6460026C0C5C0C5C0C5C0C5C0C50A
:100AE000C0C5C0C5C0C5403D49008D46704710B562
:100AF0000446C046C0462046FFF72DFB10BD10B58A
:100B00000C461107090F092904D00A290AD008291F
:100B10000CD104E011460820FFF756FC06E0510610
:100B200006D501E0510601D50120C007214610BDC0
:100B3000D10607D501010909CC084907000E0006B6
:100B4000044309E0410F20024907000A0143200E37
:100B500000061D22D14101430846E7E7014918205C
:100B6000ABBEFEE7260002007047000010B508206B
:100B70000349486000F006F808200149886010BD6C
:100B800040F00F40F0B585B0FF2001304949486082
:100B90004948006980B204900498FFF78AFB044634
:100BA000464A474BFFF758FE06460022454BFFF7E3
:100BB00053FE424A5242444B01910090FFF728FCF9
:100BC00003910290FFF7F2FA40490860404800782C
:100BD000002806D0012812D0022824D0032847D1AB
:100BE0002DE03A4800683B490968884203DA3A48F0
:100BF0003A49088002E000203849088039E033484B
:100C0000006834490968884206DA344800880A30A6
:100C100000B23249088005E0304800880A3800B246
:100C20002E49088025E02B48006828490968401AA9
:100C30002A490988401800B22849088019E0234849
:100C40000068FFF783FB0546224909681F4A1268BE
:100C5000881AFFF77BFB06462A463146204800F0FB
:100C600045FB0446FFF728FB00B21C49088000E062
:100C700000BF00BF19480021415E002903DA0020AF
:100C80001649088008E015490020085E124988428C
:100C900002DD0846114908801048008882B204210C
:100CA000104800F027FAFF2001300249886005B0A3
:100CB000F0BD000040F00F4000B00340666666667D
:100CC00066660A4000408F409999014108F0FF1F75
:100CD00014F0FF1F04F0FF1FDC0500000CF0FF1FE5
:100CE00018F0FF1F0080034010B5002804D0012336
:100CF0009B040F4CA36003E001239B040C4C636036
:100D0000002904D00123DB04094CA36003E0012384
:100D1000DB04074C6360002A04D00223044C8034B7
:100D2000A36003E00223024C8034636010BD000026
:100D300040F00F4008B505494143009102E0009999
:100D4000491E009100990029F9D108BD1027000023
:100D500010B51A48C06B0121C90608431749C8637A
:100D60000C2017498860402008600020086280211C
:100D70000F2000F045FB0F20002805DBC206D20E35
:100D8000012191400F4A116000BF0F20002805DBB0
:100D9000C206D20E012191400B4A116000BF0748E4
:100DA000806B012189020843044988630748006871
:100DB0000721090208400549086010BD0080044071
:100DC00000B0034080E200E000E100E000A0044049
:100DD00000B51148C06B0121C90708430E49C8631B
:100DE0000846806B0121490308430B4988630B487F
:100DF000806B072109028843084988630846806B95
:100E00008863002006498870C870C02048700020A0
:100E100000F078F900BD00000080044040D004409C
:100E200020F003403548806B012189020843334993
:100E30008863334840680721090288433049486085
:100E400008464068891508432D494860084680686F
:100E50000721090288432A49886008468068891565
:100E60000843274988600846C0680721090288436B
:100E70002349C8600846C068891508432049C860EE
:100E80000846006A0721090288431D49086208468E
:100E9000006A891508431A4908620846406A072112
:100EA00009028843164948620846406A8915084382
:100EB000134948620846806A07210902884310499D
:100EC00088620846806A891508430D498862084689
:100ED000C06A0721090288430949C8620846C06AF6
:100EE000891508430649C86206484069064908430F
:100EF000044948610448886070470000008004404D
:100F000000A0044040F00F400E0F00001E48806B10
:100F10000521890208431C4988631C488068072111
:100F20000902884319498860084680688915084382
:100F3000164988600846C06807210902884313499A
:100F4000C8600846C068891508431049C860104841
:100F500040680721090288430D49486008464068F7
:100F6000891508430A4948600A48406903218904F1
:100F70000843084948610748803040690221084316
:100F800004498031486170470080044040A004401B
:100F900000C0044040F00F4008480068401C07496A
:100FA00008600748C068C007C00F002805D0044883
:100FB000C068C107C90F0248C160704700F0FF1F39
:100FC0000071034010B504461548C06B0121C905E6
:100FD00008431349C8631348006802218843114934
:100FE000086008460068012108430E4908600E4861
:100FF00004608068042108400B49886008468068C6
:1010000002210843084988608021162000F0BCF9BD
:10101000162000F0A1F9162000F0AAF910BD00007A
:101020000080044000700340007103400348806862
:1010300001210843014988607047000000710340A6
:10104000F8B504460D4616461F46264820180028C7
:1010500006D001210903401A0AD0401A18D10FE026
:101060002148C06B0121090608431F49C86310E0ED
:101070001D48C06B0121490608431B49C86308E0AD
:101080001948C06B0121890608431749C86300E06D
:1010900000BF00BF14484068144908431249486023
:1010A000A6602421EA0020460C3081506020206098
:1010B000842000590E49084384210851E900204644
:1010C0000C30081847608021112000F05DF91120D4
:1010D00000F042F9112000F04BF920680821084384
:1010E0002060F8BD0080FCBF0080044000000101CA
:1010F000C000000A10B5CC0003460C33E3185A6058
:1011000010BD0000024A10700105090F51707047B0
:1011100000F00340F0B587B007463846FFF7C9F83E
:1011200005460E4A0E4BFFF797FB00220D4B01912F
:101130000090FFF791FB00220B4B03910290FFF709
:1011400067F905910490FFF767F8044607490C70AA
:101150002005000F487007B0F0BD00009A999999DA
:10116000999901400000B04000C8A94000F0034038
:1011700000204249086042480078C007C00F00289C
:101180000AD04048807808210840002804D03D4813
:10119000807808433B4988702A203B4908703B48C7
:1011A0003649C03948603A480068032189048843B9
:1011B00040183749086037484068012109048843CE
:1011C00040183449486008464068032109068843AE
:1011D0000121090640182F4948600846806B4915CF
:1011E00008432C4988632C4880682C4908402A49C8
:1011F00088600846C068294908402749C86000201F
:1012000027490872242048708020264908709A20B7
:101210002349087000BF2248807902210840002835
:10122000F9D000BF1E488079102108400028F9D16C
:101230001B48C078C006C00E1949C870012008714B
:1012400000204871084640794021084314494871FC
:1012500000BF13488079402108400028F9D0104889
:1012600000788006800E0E49087000BF0C48807917
:101270000C2108400C28F9D170470000008104407F
:1012800000F0074000D0074000E0074000000110D8
:10129000007004400080044040900440FFF8FFFECE
:1012A000004006400050064004200C4948600C48AD
:1012B0000068802108430A4908600A48006800283D
:1012C00002D04820084908600648006801214840CB
:1012D00004490860042001498860704740F00F40CD
:1012E0000080034034F0FF1F00B00340FEB5044609
:1012F0000F4615463946606900F0C0F9029039463C
:10130000606800F04BF96060A168606800F00EFA58
:1013100002D2A068606006E0E168606800F084F9CD
:1013200001D2E06860606168206900F0A7F901906F
:101330002846216800F026FA0090A16900F09EF985
:10134000064625600199029800F028F93146009080
:1013500000F018FAFEBD0000002805DBC206D20E20
:1013600001219140014A11607047000080E200E0D5
:10137000002805DBC206D20E01219140014A11600E
:101380007047000000E100E010B5002819DB1A4AA0
:1013900003231B02D21883089B00D2588307DC0E5C
:1013A000FF23A3409A438B071B0E8407E40EA34040
:1013B0001A43114B032424021B198408A4001A5158
:1013C00018E00E4A03071B0F083B9B089B00D258EE
:1013D0008307DC0EFF23A3409A438B071B0E840771
:1013E000E40EA3401A43054B0407240F083CA4084D
:1013F000A4001A5110BD000000E100E01CED00E067
:1014000010B5002819DB1A4A03231B02D2188308DF
:101410009B00D2588307DC0EFF23A3409A438B071F
:101420001B0E8407E40EA3401A43114B032424022D
:101430001B198408A4001A5118E00E4A03071B0F59
:10144000083B9B089B00D2588307DC0EFF23A34078
:101450009A438B071B0E8407E40EA3401A43054BE7
:101460000407240F083CA408A4001A5110BD000072
:1014700000E100E01CED00E0FFF7D4FCFFF7A8FC62
:10148000FFF744FD002201210846FFF72DFC6420F0
:10149000FFF750FC012200210846FFF725FCFFF76B
:1014A00057FC3748806B012149030843344988635E
:1014B0003448C06B0721090208403249C863084616
:1014C000C06B0321090208432E49C86300232E4A3A
:1014D00004212E48FFF7B4FD002204212B48FFF71A
:1014E00009FE4B208001FFF76DFDFFF79FFD45E0F2
:1014F00000202749086008460068FFF70BFEFF2020
:101500002D30FFF717FC00202249086002202249F5
:1015100048600A201E49086010E01D480068FFF777
:10152000F9FD00BF1B4800680528FBDB00201949B6
:101530000860174800680A301549086014480068B8
:101540003228EADB32201249086010E010480068B7
:10155000FFF7E0FD00BF0F4800680528FBDB002017
:101560000C4908600A4800680A38094908600848B8
:1015700000680028EADA022007498860B8E700001E
:101580000080044040D00440DC050000008003409F
:1015900004F0FF1F00F0FF1F40F00F4070B5012561
:1015A0000400ED074C4020D4441A01D2001B091955
:1015B000C60D4B00F2B2FF2A29D01B0E2CD0000220
:1015C0000C02D31A2C43DC402843051910D2280AF8
:1015D00002D3401C6D0611D0761EF6058019FF2A35
:1015E00000DA70BDC00DC00570BD694000F0D0F8D4
:1015F00001200543C541521C761CE8E764089C4065
:10160000C90161408900E7D10124A043E4E71B0E32
:10161000440200D0034870BD002AFCD1C00FC007AF
:1016200070BD00BF0000C07F01230200DB050A433C
:101630000DD4DA4203D49A4207D488427047D84284
:1016400014D4D94212D48842704780427047DA429B
:1016500003D59A42F9D5814270475B004200DA42D5
:1016600004D24A00DA4201D28142704710B5024AE0
:10167000FEF778FE10BD00BF0900160470B54200E9
:1016800064414B005C41120E39D01B0E38D0FF2A4A
:101690003CD0FF2B3AD040024902400A490A0600DA
:1016A00045184E43000A090AD2184843ED017F3A13
:1016B0000104731A4019190C4318990F04D0012121
:1016C0005B0849075B1A521CD80904D3401CF50378
:1016D00001D19D0607D0FF2A08D2D50506D0E40720
:1016E0002043401970BD0125A843F4E7002A01DC1E
:1016F000E00770BD2402FF202043C00570BD1B0E13
:10170000FF2A03D0FF2B01D0E00770BDFF26450064
:101710003606B54206D84D00B54203D8D218FF2A86
:1017200000D0E7E7004870BD0000C07F01230A0039
:10173000DB0502430DD4DA4203D49A4207D4814236
:101740007047D94214D4D84212D48142704789429A
:101750007047DA4203D59A42F9D5884270475B0058
:101760004A00DA4204D24200DA4201D2884270478B
:101770004840414010B5024A4840FEF7F3FD10BD15
:101780000900160470B501250400ED074C4022D471
:10179000441A02D26C40001B0919C60D4B00F2B26C
:1017A000FF2A4BD01B0E50D000020C02D31A2C4340
:1017B000DC40A843051B05D5AD0019D36D08761E86
:1017C000521E37D0F605280A01D2801970BD70412B
:1017D0006D0603D070BD6940FFF7E6FE9C4009022C
:1017E0006140490001D0401E70BD0124A04370BD7E
:1017F0006D081DD001202B0C01D12D0410302B0EB3
:1018000001D12D0208302B0F01D12D01001DAB0F8E
:1018100001D1AD00801CEB0F01D16D00401C6D00AB
:10182000361A121A680AF5054019012A02DB70BD42
:10183000002070BDC036300AC00770BD1B0E4402C8
:1018400001D1FF2B00D1024870BD002AF0D070BD3D
:101850000000C07F80807F7E7D7C7B7A7978777680
:1018600076757473727171706F6E6E6D6C6C6B6A7D
:101870006A6968686766666564646363626161601B
:10188000605F5F5E5E5D5D5C5C5B5B5A5A59595898
:101890005857575656555555545453535252525102
:1018A000515050504F4F4F4E4E4D4D4D4C4C4C4B58
:1018B0004B4B4A4A4A49494948484847474747469F
:1018C00046464545454444444443434343424242DB
:1018D00042414141F418000000F0FF1F38000000B1
:1018E000040100002C19000038F0FF1F6001000007
:1018F00020010000000000000000000000000000C7
:1019000000000000000000000000000000000000D7
:10191000000000000080BB440080BBC4E02D1440E8
:0C1920007B83AF3F36B0813F0000000029
:04000005000000C136
:00000001FF
